:1000000072C000009EC000009CC000009AC00000AA
:1000100098C0000096C0000094C0000092C000008C
:1000200090C000008EC000008CC000008AC000009C
:1000300088C0000086C0000084C0000082C00000AC
:1000400080C000007EC000007CC000007AC00000BC
:1000500078C0000076C0000074C000001AC2000022
:1000600070C00000E0C10000B5C100006AC000001F
:1000700068C0000066C0000064C0000062C00000EC
:1000800060C000005EC000005CC000005AC00000FC
:1000900058C0000056C0000054C0000052C000000C
:1000A00050C000004EC000004CC000004AC000001C
:1000B00048C0000046C0000044C0000042C000002C
:1000C00040C000003EC000003CC000003AC000003C
:1000D00038C0000036C0000034C0000032C000004C
:1000E00030C00000970311241FBECFEFD1E2DEBF66
:1000F000CDBF00E00CBF12E0A0E0B2E0E4EAF7E020
:1001000000E00BBF02C007900D92A031B107D9F7F4
:1001100022E0A0E1B2E001C01D92AA3BB207E1F7E4
:1001200010E0C3E7D0E000E005C021970109802F6F
:10013000FE012AD3C237D10780E00807B1F7F3D117
:100140002FC35ECFCF92DF92EF92FF920F931F9358
:10015000CF93DF936C017A018B01C0E0D0E0CE1524
:10016000DF0589F0D8016D918D01D601ED91FC91EB
:100170000190F081E02DC6011995892B11F47E01C3
:1001800002C02196ECCFC701DF91CF911F910F9153
:10019000FF90EF90DF90CF900895FC01918D828DBC
:1001A000981761F0828DDF01A80FB11D5D968C91CB
:1001B000928D9F5F9F73928F90E008958FEF9FEFD6
:1001C0000895FC01918D828D981731F0828DE80F92
:1001D000F11D858D90E008958FEF9FEF0895FC014C
:1001E000918D228D892F90E0805C9F4F821B910919
:1001F0008F739927089589E192E0F1DF21E0892B3F
:1002000009F420E0822F0895FC01848DDF01A80FFE
:10021000B11DA35ABF4F2C91848D90E001968F732E
:100220009927848FA689B7892C93A089B1898C914D
:1002300080648C93938D848D981306C00288F38913
:10024000E02D80818F7D80830895EF92FF920F9340
:100250001F93CF93DF93EC0181E0888F9B8D8C8D72
:10026000981305C0E889F989808185FD23C0F62EA1
:100270000B8D10E00F5F1F4F0F731127E02E8C8D39
:10028000E8120BC00FB607FCFACFE889F989808124
:1002900085FFF5CFCE01B8DFF2CF8B8DFE01E80FE1
:1002A000F11DE35AFF4FF0820B8FEA89FB898081B1
:1002B000806207C0EE89FF896083E889F9898081BF
:1002C0008064808381E090E0DF91CF911F910F9156
:1002D000FF90EF900895CF93DF93EC01888D8823F2
:1002E000C1F0EA89FB89808185FD05C0A889B989AB
:1002F0008C9186FD0EC00FB607FCF5CF808185FF7F
:10030000F2CFA889B9898C9185FFEDCFCE017CDF32
:10031000E8CFDF91CF91089580E090E0892B19F02C
:100320006ADF811125C080E090E0892B41F080E0F8
:1003300090E0892B21F00E94000081111CC080E018
:1003400090E0892B41F080E090E0892B21F00E9421
:100350000000811113C080E090E0892BA1F080E0C3
:1003600090E0892B81F00E94000081110AC008955D
:100370000E940000D8CF0E940000E1CF0E94000040
:10038000EACF0C94000008953FB7F89480911502CD
:1003900090911602A0911702B091180226B5A89B61
:1003A00005C02F3F19F00196A11DB11D3FBFBA2F07
:1003B000A92F982F8827820F911DA11DB11DBC0167
:1003C000CD0142E0660F771F881F991F4A95D1F72C
:1003D0000895E2D11F920F920FB60F9211240BB61F
:1003E0000F922F933F934F935F936F937F938F93CE
:1003F0009F93AF93BF93EF93FF9389E192E004DF64
:10040000FF91EF91BF91AF919F918F917F916F91EC
:100410005F914F913F912F910F900BBE0F900FBEA8
:100420000F901F9018951F920F920FB60F921124E4
:100430000BB60F922F938F939F93EF93FF93E091BF
:100440002902F0912A028081E0912F02F09130027E
:1004500082FD12C09081809132028F5F8F73209154
:100460003302821751F0E0913202F0E0E75EFD4F77
:10047000958F8093320201C08081FF91EF919F910F
:100480008F912F910F900BBE0F900FBE0F901F906A
:1004900018951F920F920FB60F9211242F933F932E
:1004A0008F939F93AF93BF9380911102909112020B
:1004B000A0911302B09114023091100223E0230F97
:1004C0002D3720F40196A11DB11D05C026E8230F8C
:1004D0000296A11DB11D20931002809311029093EA
:1004E0001202A0931302B09314028091150290910E
:1004F0001602A0911702B09118020196A11DB11D1C
:100500008093150290931602A0931702B0931802DD
:10051000BF91AF919F918F913F912F910F900FBEFF
:100520000F901F901895789484B5826084BD84B52F
:10053000816084BD85B5826085BD85B5816085BDDE
:1005400080916E00816080936E0010928100809196
:10055000810082608093810080918100816080931E
:100560008100809180008160809380008091B10043
:1005700084608093B1008091B00081608093B0006E
:1005800080919100826080939100809191008160C0
:100590008093910080919000816080939000809181
:1005A000A10082608093A1008091A100816080936E
:1005B000A1008091A00081608093A0008091210122
:1005C00082608093210180912101816080932101CB
:1005D0008091200181608093200180917A00846065
:1005E00080937A0080917A00826080937A00809173
:1005F0007A00816080937A0080917A00806880938D
:100600007A001092C100E0912902F0912A0282E062
:100610008083E0912502F09126021082E09127026A
:10062000F09128028FEC808310923102E0912D022C
:10063000F0912E0286E08083E0912B02F0912C0253
:10064000808180618083E0912B02F0912C02808177
:1006500088608083E0912B02F0912C028081806879
:100660008083E0912B02F0912C0280818F7D80832A
:1006700010E480917B00877F80937B0010937C0047
:1006800080917A00806480937A0080917A0086FD60
:10069000FCCFC091780080917900D0E0D82BD7FDB5
:1006A000279693E0D595C7959A95E1F7D093B9022F
:1006B000C093B8028091B6029091B702C817D907CB
:1006C00081F060EB89E192E0C0DD61E089E192E0D8
:1006D000BCDD6C2F89E192E0B8DDD093B702C09306
:1006E000B60252DE4B015C018AE0C82ED12CE12C0F
:1006F000F12C4ADEDC01CB0188199909AA09BB0952
:10070000883E9340A105B10558F021E0C21AD108F6
:10071000E108F10888EE880E83E0981EA11CB11C48
:10072000C114D104E104F10421F7F6DDA2CFE9E11F
:10073000F2E01382128288EE93E0A0E0B0E08483BE
:100740009583A683B78384E092E09183808385ECD0
:1007500090E09587848784EC90E09787868780EC8B
:1007600090E0918B808B81EC90E0938B828B82EC7C
:1007700090E0958B848B86EC90E0978B868B118E26
:10078000128E138E148E0895EE0FFF1F881F8BBFDD
:100790000790F691E02D199481E090E0F89400C064
:0407A000F894FFCFFB
:1007A400000000002501A200EF00CD00E1006B0174
:00000001FF
